:03000000020248B1
:0C024800787FE4F6D8FD75810C020003FD
:060222008B088A09890A1D
:10022800E4F50BF50CAA09A90A1204C2B2A5050C3B
:0F023800E50C7002050BC394F4E50B940140E64E
:010247002294
:100003007BFF7A0279D81202227BFF7A04792912C4
:1000130002227BFF7A0279541202227BFF7A027951
:10002300E31202227BFF7A0479321202227BFF7AE7
:1000330004793B1202227BFF7A0279601202227B4F
:10004300FF7A0279EE1202227BFF7A03799312027E
:10005300227BFF7A0479441202227BFF7A04794DD2
:100063001202227BFF7A03799D1202227BFF7A041C
:1000730079561202227BFF7A0379A71202227BFFB1
:100083007A04795F1202227BFF7A0279F912022243
:100093007BFF7A02796C1202227BFF7A0279781253
:1000A30002227BFF7A0279841202227BFF7A037990
:1000B300041202227BFF7A0379B11202227BFF7AB8
:1000C3000379BB1202227BFF7A0379C51202227BDA
:1000D300FF7A03790F1202227BFF7A0279901202D0
:1000E300227BFF7A0379CF1202227BFF7A0379D92D
:1000F3001202227BFF7A03791A1202227BFF7A0310
:1001030079E31202227BFF7A0479681202227BFFD1
:100113007A0379251202227BFF7A037930120222B5
:100123007BFF7A0479711202227BFF7A04797A12B7
:1001330002227BFF7A03793B1202227BFF7A037947
:10014300461202227BFF7A0479831202227BFF7A12
:100153000379511202227BFF7A0379ED1202227B8B
:10016300FF7A04798C1202227BFF7A0379F7120259
:10017300227BFF7A0479011202227BFF7A047995AC
:100183001202227BFF7A03795C1202227BFF7A023E
:10019300799C1202227BFF7A0279A81202227BFF4A
:1001A3007A0379671202227BFF7A04799E12022274
:1001B3007BFF7A04790B1202227BFF7A0379721296
:1001C30002227BFF7A03797D1202227BFF7A047974
:1001D300151202227BFF7A0279B41202227BFF7A84
:1001E3000379881202227BFF7A0279C01202227BF2
:1001F300FF7A0479A71202227BFF7A04791F120285
:10020300227BFF7A0479B01202227BFF7A0479B948
:0F0213001202227BFF7A0279CC12022202000330
:0A02D80000007F2A7E19DEFEDFFC25
:0102E20022F9
:080429007F277ECDDEFEDFFC23
:0104310022A8
:0B0254000000007F257E9DDEFEDFFC29
:01025F00227C
:0A02E30000007F237E8FDEFEDFFCAB
:0102ED0022EE
:080432007F217EA0DEFEDFFC4D
:01043A00229F
:08043B007F1F7EC9DEFEDFFC1D
:010443002296
:0B0260000000007F1E7E0FDEFEDFFCB2
:01026B002270
:0A02EE0000007F1C7E6DDEFEDFFCC9
:0102F80022E3
:09039300007F1A7EE4DEFEDFFCAF
:01039C00223E
:080444007F197E70DEFEDFFC73
:01044C00228D
:08044D007F187E0FDEFEDFFCCC
:010455002284
:09039D00007F167EC5DEFEDFFCC8
:0103A6002234
:080456007F157E8BDEFEDFFC4A
:01045E00227B
:0903A700007F147E64DEFEDFFC21
:0103B000222A
:08045F007F137E4EDEFEDFFC80
:010467002272
:0A02F90000007F127E45DEFEDFFCF0
:0103030022D7
:0B026C000000007F117E4DDEFEDFFC75
:010277002264
:0B0278000000007F107E63DEFEDFFC54
:010283002258
:0B0284000000007F0F7E84DEFEDFFC28
:01028F00224C
:0A03040000007F0E7EB6DEFEDFFC77
:01030E0022CC
:0903B100007F0D7EF0DEFEDFFC92
:0103BA002220
:0903BB00007F0D7E34DEFEDFFC44
:0103C4002216
:0903C500007F0C7E87DEFEDFFCE8
:0103CE00220C
:0A030F0000007F0B7EDFDEFEDFFC46
:0103190022C1
:0B0290000000007F0B7E44DEFEDFFC60
:01029B002240
:0903CF00007F0A7EB0DEFEDFFCB7
:0103D8002202
:0903D900007F0A7E23DEFEDFFC3A
:0103E20022F8
:0A031A0000007F097EA2DEFEDFFC7A
:0103240022B6
:0903E300007F097E23DEFEDFFC31
:0103EC0022EE
:080468007F087EB0DEFEDFFC20
:010470002269
:0A03250000007F087E41DEFEDFFCD1
:01032F0022AB
:0A03300000007F077ED9DEFEDFFC2F
:01033A0022A0
:080471007F077E76DEFEDFFC52
:010479002260
:08047A007F077E18DEFEDFFCA7
:010482002257
:0A033B0000007F067EC0DEFEDFFC3E
:010345002295
:0A03460000007F067E6DDEFEDFFC86
:01035000228A
:080483007F067E20DEFEDFFC97
:01048B00224E
:0A03510000007F057ED6DEFEDFFC13
:01035B00227F
:0903ED00007F057E91DEFEDFFCBD
:0103F60022E4
:08048C007F057E4FDEFEDFFC60
:010494002245
:0903F700007F057E0FDEFEDFFC35
:0104000022D9
:09040100007F047ED6DEFEDFFC64
:01040A0022CF
:080495007F047E9FDEFEDFFC08
:01049D00223C
:0A035C0000007F047E6ADEFEDFFC75
:010366002274
:0B029C000000007F047E38DEFEDFFC67
:0102A7002234
:0B02A8000000007F047E09DEFEDFFC8A
:0102B3002228
:0A03670000007F037EDEDEFEDFFCF7
:010371002269
:08049E007F037EB5DEFEDFFCEA
:0104A6002233
:09040B00007F037E8EDEFEDFFCA3
:0104140022C5
:0A03720000007F037E67DEFEDFFC63
:01037C00225E
:0A037D0000007F037E46DEFEDFFC79
:010387002253
:09041500007F037E25DEFEDFFC02
:01041E0022BB
:0B02B4000000007F037E06DEFEDFFC82
:0102BF00221C
:0A03880000007F027EE9DEFEDFFCCC
:010392002248
:0B02C0000000007F027ECDDEFEDFFCB0
:0102CB002210
:0804A7007F027EB2DEFEDFFCE5
:0104AF00222A
:09041F00007F027E99DEFEDFFC85
:0104280022B1
:0804B0007F027E83DEFEDFFC0B
:0104B8002221
:0804B9007F027E6DDEFEDFFC18
:0104C1002218
:0B02CC000000007F027E59DEFEDFFC18
:0102D7002204
:0604C2008A838982E473C5
:00000001FF
